{
  "contractName": "Voting",
  "abi": [
    {
      "inputs": [
        {
          "internalType": "string",
          "name": "_name",
          "type": "string"
        }
      ],
      "stateMutability": "nonpayable",
      "type": "constructor"
    },
    {
      "inputs": [
        {
          "internalType": "uint256",
          "name": "",
          "type": "uint256"
        }
      ],
      "name": "candidates",
      "outputs": [
        {
          "internalType": "uint256",
          "name": "id",
          "type": "uint256"
        },
        {
          "internalType": "string",
          "name": "name",
          "type": "string"
        },
        {
          "internalType": "uint256",
          "name": "voteCount",
          "type": "uint256"
        }
      ],
      "stateMutability": "view",
      "type": "function",
      "constant": true
    },
    {
      "inputs": [],
      "name": "candidatesCount",
      "outputs": [
        {
          "internalType": "uint256",
          "name": "",
          "type": "uint256"
        }
      ],
      "stateMutability": "view",
      "type": "function",
      "constant": true
    },
    {
      "inputs": [],
      "name": "electionName",
      "outputs": [
        {
          "internalType": "string",
          "name": "",
          "type": "string"
        }
      ],
      "stateMutability": "view",
      "type": "function",
      "constant": true
    },
    {
      "inputs": [],
      "name": "owner",
      "outputs": [
        {
          "internalType": "address",
          "name": "",
          "type": "address"
        }
      ],
      "stateMutability": "view",
      "type": "function",
      "constant": true
    },
    {
      "inputs": [
        {
          "internalType": "string",
          "name": "_name",
          "type": "string"
        }
      ],
      "name": "addCandidate",
      "outputs": [],
      "stateMutability": "nonpayable",
      "type": "function"
    },
    {
      "inputs": [
        {
          "internalType": "address",
          "name": "_voter",
          "type": "address"
        }
      ],
      "name": "authorizeVoter",
      "outputs": [],
      "stateMutability": "nonpayable",
      "type": "function"
    },
    {
      "inputs": [
        {
          "internalType": "uint256",
          "name": "_candidateId",
          "type": "uint256"
        }
      ],
      "name": "vote",
      "outputs": [],
      "stateMutability": "nonpayable",
      "type": "function"
    },
    {
      "inputs": [
        {
          "internalType": "uint256",
          "name": "_candidateId",
          "type": "uint256"
        }
      ],
      "name": "getCandidate",
      "outputs": [
        {
          "internalType": "string",
          "name": "",
          "type": "string"
        },
        {
          "internalType": "uint256",
          "name": "",
          "type": "uint256"
        }
      ],
      "stateMutability": "view",
      "type": "function",
      "constant": true
    },
    {
      "inputs": [],
      "name": "totalVotes",
      "outputs": [
        {
          "internalType": "uint256",
          "name": "",
          "type": "uint256"
        }
      ],
      "stateMutability": "view",
      "type": "function",
      "constant": true
    },
    {
      "inputs": [
        {
          "internalType": "address",
          "name": "_voter",
          "type": "address"
        }
      ],
      "name": "verifyVote",
      "outputs": [
        {
          "internalType": "uint256",
          "name": "",
          "type": "uint256"
        }
      ],
      "stateMutability": "view",
      "type": "function",
      "constant": true
    }
  ],
  "bytecode": "0x608060405234801562000010575f80fd5b50604051620017ed380380620017ed833981810160405281019062000036919062000213565b335f806101000a81548173ffffffffffffffffffffffffffffffffffffffff021916908373ffffffffffffffffffffffffffffffffffffffff160217905550806001908162000086919062000499565b50506200057d565b5f604051905090565b5f80fd5b5f80fd5b5f80fd5b5f80fd5b5f601f19601f8301169050919050565b7f4e487b71000000000000000000000000000000000000000000000000000000005f52604160045260245ffd5b620000ef82620000a7565b810181811067ffffffffffffffff82111715620001115762000110620000b7565b5b80604052505050565b5f620001256200008e565b9050620001338282620000e4565b919050565b5f67ffffffffffffffff821115620001555762000154620000b7565b5b6200016082620000a7565b9050602081019050919050565b5f5b838110156200018c5780820151818401526020810190506200016f565b5f8484015250505050565b5f620001ad620001a78462000138565b6200011a565b905082815260208101848484011115620001cc57620001cb620000a3565b5b620001d98482856200016d565b509392505050565b5f82601f830112620001f857620001f76200009f565b5b81516200020a84826020860162000197565b91505092915050565b5f602082840312156200022b576200022a62000097565b5b5f82015167ffffffffffffffff8111156200024b576200024a6200009b565b5b6200025984828501620001e1565b91505092915050565b5f81519050919050565b7f4e487b71000000000000000000000000000000000000000000000000000000005f52602260045260245ffd5b5f6002820490506001821680620002b157607f821691505b602082108103620002c757620002c66200026c565b5b50919050565b5f819050815f5260205f209050919050565b5f6020601f8301049050919050565b5f82821b905092915050565b5f600883026200032b7fffffffffffffffffffffffffffffffffffffffffffffffffffffffffffffffff82620002ee565b620003378683620002ee565b95508019841693508086168417925050509392505050565b5f819050919050565b5f819050919050565b5f620003816200037b62000375846200034f565b62000358565b6200034f565b9050919050565b5f819050919050565b6200039c8362000361565b620003b4620003ab8262000388565b848454620002fa565b825550505050565b5f90565b620003ca620003bc565b620003d781848462000391565b505050565b5b81811015620003fe57620003f25f82620003c0565b600181019050620003dd565b5050565b601f8211156200044d576200041781620002cd565b6200042284620002df565b8101602085101562000432578190505b6200044a6200044185620002df565b830182620003dc565b50505b505050565b5f82821c905092915050565b5f6200046f5f198460080262000452565b1980831691505092915050565b5f6200048983836200045e565b9150826002028217905092915050565b620004a48262000262565b67ffffffffffffffff811115620004c057620004bf620000b7565b5b620004cc825462000299565b620004d982828562000402565b5f60209050601f8311600181146200050f575f8415620004fa578287015190505b6200050685826200047c565b86555062000575565b601f1984166200051f86620002cd565b5f5b82811015620005485784890151825560018201915060208501945060208101905062000521565b8683101562000568578489015162000564601f8916826200045e565b8355505b6001600288020188555050505b505050505050565b611262806200058b5f395ff3fe608060405234801561000f575f80fd5b506004361061009c575f3560e01c8063462e91ec11610064578063462e91ec1461015b578063607b17b51461017757806385e8e7a7146101a75780638da5cb5b146101c5578063fd47b368146101e35761009c565b80630121b93f146100a05780630d15fd77146100bc5780632d35a8a2146100da5780633477ee2e146100f857806335b8e8201461012a575b5f80fd5b6100ba60048036038101906100b5919061096f565b6101ff565b005b6100c46103e0565b6040516100d191906109a9565b60405180910390f35b6100e2610431565b6040516100ef91906109a9565b60405180910390f35b610112600480360381019061010d919061096f565b610437565b60405161012193929190610a4c565b60405180910390f35b610144600480360381019061013f919061096f565b6104e3565b604051610152929190610a88565b60405180910390f35b61017560048036038101906101709190610be2565b6105bc565b005b610191600480360381019061018c9190610c83565b6106be565b60405161019e91906109a9565b60405180910390f35b6101af610795565b6040516101bc9190610cae565b60405180910390f35b6101cd610821565b6040516101da9190610cdd565b60405180910390f35b6101fd60048036038101906101f89190610c83565b610844565b005b60025f3373ffffffffffffffffffffffffffffffffffffffff1673ffffffffffffffffffffffffffffffffffffffff1681526020019081526020015f205f0160019054906101000a900460ff161561028c576040517f08c379a000000000000000000000000000000000000000000000000000000000815260040161028390610d40565b60405180910390fd5b60025f3373ffffffffffffffffffffffffffffffffffffffff1673ffffffffffffffffffffffffffffffffffffffff1681526020019081526020015f205f015f9054906101000a900460ff16610317576040517f08c379a000000000000000000000000000000000000000000000000000000000815260040161030e90610da8565b60405180910390fd5b8060025f3373ffffffffffffffffffffffffffffffffffffffff1673ffffffffffffffffffffffffffffffffffffffff1681526020019081526020015f2060010181905550600160025f3373ffffffffffffffffffffffffffffffffffffffff1673ffffffffffffffffffffffffffffffffffffffff1681526020019081526020015f205f0160016101000a81548160ff02191690831515021790555060035f8281526020019081526020015f206002015f8154809291906103d890610df3565b919050555050565b5f805f90505f600190505b60045481116104295760035f8281526020019081526020015f2060020154826104149190610e3a565b9150808061042190610df3565b9150506103eb565b508091505090565b60045481565b6003602052805f5260405f205f91509050805f01549080600101805461045c90610e9a565b80601f016020809104026020016040519081016040528092919081815260200182805461048890610e9a565b80156104d35780601f106104aa576101008083540402835291602001916104d3565b820191905f5260205f20905b8154815290600101906020018083116104b657829003601f168201915b5050505050908060020154905083565b60605f8060035f8581526020019081526020015f206040518060600160405290815f820154815260200160018201805461051c90610e9a565b80601f016020809104026020016040519081016040528092919081815260200182805461054890610e9a565b80156105935780601f1061056a57610100808354040283529160200191610593565b820191905f5260205f20905b81548152906001019060200180831161057657829003601f168201915b505050505081526020016002820154815250509050806020015181604001519250925050915091565b5f8054906101000a900473ffffffffffffffffffffffffffffffffffffffff1673ffffffffffffffffffffffffffffffffffffffff163373ffffffffffffffffffffffffffffffffffffffff1614610649576040517f08c379a000000000000000000000000000000000000000000000000000000000815260040161064090610f3a565b60405180910390fd5b60045f81548092919061065b90610df3565b9190505550604051806060016040528060045481526020018281526020015f81525060035f60045481526020019081526020015f205f820151815f015560208201518160010190816106ad91906110f5565b506040820151816002015590505050565b5f805f9054906101000a900473ffffffffffffffffffffffffffffffffffffffff1673ffffffffffffffffffffffffffffffffffffffff163373ffffffffffffffffffffffffffffffffffffffff161461074d576040517f08c379a00000000000000000000000000000000000000000000000000000000081526004016107449061120e565b60405180910390fd5b60025f8373ffffffffffffffffffffffffffffffffffffffff1673ffffffffffffffffffffffffffffffffffffffff1681526020019081526020015f20600101549050919050565b600180546107a290610e9a565b80601f01602080910402602001604051908101604052809291908181526020018280546107ce90610e9a565b80156108195780601f106107f057610100808354040283529160200191610819565b820191905f5260205f20905b8154815290600101906020018083116107fc57829003601f168201915b505050505081565b5f8054906101000a900473ffffffffffffffffffffffffffffffffffffffff1681565b5f8054906101000a900473ffffffffffffffffffffffffffffffffffffffff1673ffffffffffffffffffffffffffffffffffffffff163373ffffffffffffffffffffffffffffffffffffffff16146108d1576040517f08c379a00000000000000000000000000000000000000000000000000000000081526004016108c890610f3a565b60405180910390fd5b600160025f8373ffffffffffffffffffffffffffffffffffffffff1673ffffffffffffffffffffffffffffffffffffffff1681526020019081526020015f205f015f6101000a81548160ff02191690831515021790555050565b5f604051905090565b5f80fd5b5f80fd5b5f819050919050565b61094e8161093c565b8114610958575f80fd5b50565b5f8135905061096981610945565b92915050565b5f6020828403121561098457610983610934565b5b5f6109918482850161095b565b91505092915050565b6109a38161093c565b82525050565b5f6020820190506109bc5f83018461099a565b92915050565b5f81519050919050565b5f82825260208201905092915050565b5f5b838110156109f95780820151818401526020810190506109de565b5f8484015250505050565b5f601f19601f8301169050919050565b5f610a1e826109c2565b610a2881856109cc565b9350610a388185602086016109dc565b610a4181610a04565b840191505092915050565b5f606082019050610a5f5f83018661099a565b8181036020830152610a718185610a14565b9050610a80604083018461099a565b949350505050565b5f6040820190508181035f830152610aa08185610a14565b9050610aaf602083018461099a565b9392505050565b5f80fd5b5f80fd5b7f4e487b71000000000000000000000000000000000000000000000000000000005f52604160045260245ffd5b610af482610a04565b810181811067ffffffffffffffff82111715610b1357610b12610abe565b5b80604052505050565b5f610b2561092b565b9050610b318282610aeb565b919050565b5f67ffffffffffffffff821115610b5057610b4f610abe565b5b610b5982610a04565b9050602081019050919050565b828183375f83830152505050565b5f610b86610b8184610b36565b610b1c565b905082815260208101848484011115610ba257610ba1610aba565b5b610bad848285610b66565b509392505050565b5f82601f830112610bc957610bc8610ab6565b5b8135610bd9848260208601610b74565b91505092915050565b5f60208284031215610bf757610bf6610934565b5b5f82013567ffffffffffffffff811115610c1457610c13610938565b5b610c2084828501610bb5565b91505092915050565b5f73ffffffffffffffffffffffffffffffffffffffff82169050919050565b5f610c5282610c29565b9050919050565b610c6281610c48565b8114610c6c575f80fd5b50565b5f81359050610c7d81610c59565b92915050565b5f60208284031215610c9857610c97610934565b5b5f610ca584828501610c6f565b91505092915050565b5f6020820190508181035f830152610cc68184610a14565b905092915050565b610cd781610c48565b82525050565b5f602082019050610cf05f830184610cce565b92915050565b7f596f75206861766520616c726561647920766f746564000000000000000000005f82015250565b5f610d2a6016836109cc565b9150610d3582610cf6565b602082019050919050565b5f6020820190508181035f830152610d5781610d1e565b9050919050565b7f596f7520617265206e6f7420617574686f72697a656420746f20766f746500005f82015250565b5f610d92601e836109cc565b9150610d9d82610d5e565b602082019050919050565b5f6020820190508181035f830152610dbf81610d86565b9050919050565b7f4e487b71000000000000000000000000000000000000000000000000000000005f52601160045260245ffd5b5f610dfd8261093c565b91507fffffffffffffffffffffffffffffffffffffffffffffffffffffffffffffffff8203610e2f57610e2e610dc6565b5b600182019050919050565b5f610e448261093c565b9150610e4f8361093c565b9250828201905080821115610e6757610e66610dc6565b5b92915050565b7f4e487b71000000000000000000000000000000000000000000000000000000005f52602260045260245ffd5b5f6002820490506001821680610eb157607f821691505b602082108103610ec457610ec3610e6d565b5b50919050565b7f4f6e6c79206f776e65722063616e2063616c6c20746869732066756e6374696f5f8201527f6e00000000000000000000000000000000000000000000000000000000000000602082015250565b5f610f246021836109cc565b9150610f2f82610eca565b604082019050919050565b5f6020820190508181035f830152610f5181610f18565b9050919050565b5f819050815f5260205f209050919050565b5f6020601f8301049050919050565b5f82821b905092915050565b5f60088302610fb47fffffffffffffffffffffffffffffffffffffffffffffffffffffffffffffffff82610f79565b610fbe8683610f79565b95508019841693508086168417925050509392505050565b5f819050919050565b5f610ff9610ff4610fef8461093c565b610fd6565b61093c565b9050919050565b5f819050919050565b61101283610fdf565b61102661101e82611000565b848454610f85565b825550505050565b5f90565b61103a61102e565b611045818484611009565b505050565b5b818110156110685761105d5f82611032565b60018101905061104b565b5050565b601f8211156110ad5761107e81610f58565b61108784610f6a565b81016020851015611096578190505b6110aa6110a285610f6a565b83018261104a565b50505b505050565b5f82821c905092915050565b5f6110cd5f19846008026110b2565b1980831691505092915050565b5f6110e583836110be565b9150826002028217905092915050565b6110fe826109c2565b67ffffffffffffffff81111561111757611116610abe565b5b6111218254610e9a565b61112c82828561106c565b5f60209050601f83116001811461115d575f841561114b578287015190505b61115585826110da565b8655506111bc565b601f19841661116b86610f58565b5f5b828110156111925784890151825560018201915060208501945060208101905061116d565b868310156111af57848901516111ab601f8916826110be565b8355505b6001600288020188555050505b505050505050565b7f4f6e6c79206f776e65722063616e2076657269667920766f74657300000000005f82015250565b5f6111f8601b836109cc565b9150611203826111c4565b602082019050919050565b5f6020820190508181035f830152611225816111ec565b905091905056fea2646970667358221220c45194a7e5079aa71d9f192055daf6050a79d55dc84ab095718eb4d01f2bb1fe64736f6c63430008150033",
  "immutableReferences": {},
  "source": "pragma solidity ^0.8.0;\n\ncontract Voting {\n    struct Candidate {\n        uint id;\n        string name;\n        uint voteCount;\n    }\n\n    struct Voter {\n        bool authorized;\n        bool voted;\n        uint vote;\n    }\n\n    address public owner;\n    string public electionName;\n\n    mapping(address => Voter) private voters;\n    mapping(uint => Candidate) public candidates;\n    uint public candidatesCount;\n\n    modifier onlyOwner() {\n        require(msg.sender == owner, \"Only owner can call this function\");\n        _;\n    }\n\n    constructor(string memory _name) {\n        owner = msg.sender;\n        electionName = _name;\n    }\n        \n    function addCandidate(string memory _name) public onlyOwner {\n        candidatesCount++;\n        candidates[candidatesCount] = Candidate(candidatesCount, _name, 0);\n    }\n\n    function authorizeVoter(address _voter) public onlyOwner {\n        voters[_voter].authorized = true;\n    }\n\n    function vote(uint _candidateId) public {\n        require(!voters[msg.sender].voted, \"You have already voted\");\n        require(voters[msg.sender].authorized, \"You are not authorized to vote\");\n\n        voters[msg.sender].vote = _candidateId;\n        voters[msg.sender].voted = true;\n\n        candidates[_candidateId].voteCount++;\n    }\n\n    function getCandidate(uint _candidateId) public view returns (string memory, uint) {\n        Candidate memory candidate = candidates[_candidateId];\n        return (candidate.name, candidate.voteCount);\n    }\n\n    function totalVotes() public view returns (uint) {\n        uint total = 0;\n        for (uint i = 1; i <= candidatesCount; i++) {\n            total += candidates[i].voteCount;\n        }\n        return total;\n    }\n\n    function verifyVote(address _voter) public view returns (uint) {\n        require(msg.sender == owner, \"Only owner can verify votes\");\n        return voters[_voter].vote;\n    }\n}\n",
  "sourcePath": "/home/sam/Documents/Web/BlockChain/VotingSystem/voting-dapp/src/contracts/Voting.sol",
  "compiler": {
    "name": "solc",
    "version": "0.8.21+commit.d9974bed.Emscripten.clang"
  },
  "schemaVersion": "3.4.16",
  "updatedAt": "2024-11-08T17:45:50.373Z",
  "networkType": "ethereum",
  "devdoc": {
    "kind": "dev",
    "methods": {},
    "version": 1
  },
  "userdoc": {
    "kind": "user",
    "methods": {},
    "version": 1
  }
}